:10000000003D0020A54F0000EDEF0000914F0000E3
:10001000914F0000914F0000914F0000914F000060
:10002000000000000000000000000000755000000B
:10003000914F00000000000019500000914F000097
:100040001D5200001D5200001D5200001D520000F4
:100050001D5200001D5200001D5200001D520000E4
:100060001D5200001D5200001D5200001D520000D4
:100070001D5200001D5200001D5200001D520000C4
:1004C8007BB972B90029BEBF00204FF0004106E099
:1004D80008BF00281CBF6FF000414FF0FF3000F04C
:1004E800BBB9ADF1080C6DE904CE002909DB002B7E
:1004F8001ADB00F04DF8DDF804E0DDE9022304B072
:100508007047404261EB4101002B1BDB00F040F8D3
:10051800DDF804E0DDE9022304B0404261EB41016B
:10052800524263EB43037047524263EB430300F0CC
:100538002FF8DDF804E0DDE9022304B0404261EB66
:1005480041017047524263EB430300F021F8DDF8A4
:1005580004E0DDE9022304B0524263EB4303704731
:1005680053B94AB9002908BF00281CBF4FF0FF3112
:100578004FF0FF3000F070B9ADF1080C6DE904CE12
:1005880000F006F8DDF804E0DDE9022304B0704766
:100598002DE9F04F099E04468946002B40F08380E0
:1005A8008A42154645D9B2FA82F24AB1C2F1200709
:1005B80001FA02F39540944020FA07F747EA030945
:1005C8004FEA154E230C1FFA85F8B9FBFEFC0EFB0B
:1005D8001C990CFB08F143EA094399420AD9EB1824
:1005E8002CBF01200020994202D9002800F01D816B
:1005F8000CF1FF3C591AA3B2B1FBFEF00EFB10112F
:1006080000FB08F843EA0144A04505D92C1902D299
:10061800A04500F20E810138A4EB080440EA0C4022
:1006280000271EB1D4400023C6E900433946BDE87F
:10063800F08F002A51D0B2FA82F2002A40F0AF803F
:10064800491B4FEA154E1FFA85F80127230CB1FB09
:10065800FEFC0EFB1C1108FB0CF043EA0143984218
:100668000AD9EB182CBF01210021984202D9002990
:1006780000F0D7800CF1FF3C191AA3B2B1FBFEF0D1
:100688000EFB101108FB00F843EA0144A04505D908
:100698002C1902D2A04500F2C1800138A4EB08044D
:1006A80040EA0C40BDE78B4208D9002E74D00027E1
:1006B800C6E9000138463946BDE8F08FB3FA83F73A
:1006C80067B98B42C0F0A480824240F2A1803846CC
:1006D800002EABD0C6E90049A8E7FFDEC7F1200528
:1006E800BB4002FA07FC01FA07F4EA4020FA05F8D1
:1006F800E94000FA07FE1A4348EA04044FEA1248A0
:10070800200C1FFA82F9B1FBF8FA08FB1A110AFB50
:1007180009FB40EA01418B450AD951182CBF012336
:1007280000238B4502D9002B00F088800AF1FF3A9C
:10073800A1EB0B01A4B2B1FBF8F008FB101100FB10
:1007480009F944EA0141894504D9511801D289457A
:100758007BD8013840EA0A40A1EB0901A0FB0C89CB
:10076800494544464B4602D306D1C64504D2013812
:10077800B8EB0C0469EB0203002E5DD0BEEB04025B
:1007880061EB030101FA05F522FA07F3F9400027A6
:100798001D43C6E9005149E73746304646E7C2F1EE
:1007A8002000954001FA02F721FA00F34FEA154EAE
:1007B80024FA00F11FFA85F894403943B3FBFEF0A0
:1007C8000F0C0EFB103300FB08FC47EA03439C4563
:1007D80007D9EB182CBF012700279C4500D98FB3F8
:1007E8000138A3EB0C0389B2B3FBFEF70EFB1733FA
:1007F80007FB08FC41EA03418C4504D9691801D27A
:100808008C4525D8013FA1EB0C0147EA00471DE7BD
:10081800841A61EB03030120994659E702382C44F6
:100828003CE7ACF1020C2B4426E7ACF1020C2B445C
:10083800E0E602382C44EFE63746F7E6AAF1020A6A
:10084800114475E702382B44CBE70238114481E79D
:10085800023F2944D7E700BF704700BF10F8012BBB
:1008680011F8013B012A28BF9A42F7D0D01A7047E5
:10087800034611F8012B03F8012B002AF9D1704720
:10088800034613F8012B002AFBD1181A01387047C8
:100898002DE9F04782468AB00F46164610F015FD3E
:1008A8004FF47A73A0FB034503FB01552046294604
:1008B80047F612220023FFF753FE012F04460D4688
:1008C80007D102460B46504635490DF090FB0020F3
:1008D80011E0766833483146FFF7C0FF70B1314602
:1008E8003148FFF7BBFF48B1504632462F490DF05B
:1008F8009AFB6FF004000AB0BDE8F087204626A3F3
:10090800D3E900232946FFF7DBFDCDE90823DDE91C
:100918000801274A0023FFF7D3FD16461F46304635
:1009280039464EF660220023FFF7CAFD204690465E
:10093800994619A3D3E900232946FFF7C1FD4FF4CF
:100948007A7204460D46404649460023FFF7B8FD33
:100958004046CDE9062349464FF47A720023FFF753
:10096800AFFD4EF66022CDE904010023304639463A
:10097800FFF7A6FD0E4ACDE90201DDE908010023D3
:10098800FFF79EFD2246CDE900012B460949504656
:100998000DF02DFB9BE700BF005C26050000000062
:1009A8005043010061430100644301006D430100AD
:1009B80080EE36008543010008B505490DF017FBA8
:1009C80040F6354000210BF0B1FA002000F076FE29
:1009D8001B3C0100F8B5214C2368002B3DDA0025AB
:1009E8001F4825600CF056FA07461E480CF052FACC
:1009F80006461D480CF04EFA8FB12B462946226850
:100A08001A4D092906D005EBC2031971012345F8CF
:100A18003270013201311029F3D103B122606EB175
:100A280000212268114B03EBC203197101312029FF
:100A38001E6003F10803F8D12032226068B100215A
:100A480022680A4B03EBC20319710131102918609F
:100A580003F10803F8D110322260F8BD900000209D
:100A6800303C0100373C01003E3C0100641300208B
:100A78002DE9F04106460025FFF7ACFF4FF00108CD
:100A88000B4C0C4F3A68AA4206DC30460A490DF076
:100A9800AEFA0020BDE8F081206828B1217908FA73
:100AA80001F183685B69984701350834EAE700BFBC
:100AB8006413002090000020043C01002DE9F84355
:100AC80007460D460026FFF785FF4FF00109124C37
:100AD800DFF84C80D8F80020964207DB38462B46D2
:100AE8000E490DF084FA0020BDE8F883206868B14B
:100AF800036921791B6809FA01F119420CBF2B46D9
:100B080085F001032BB18368DB6898470136083408
:100B1800E0E783681B69F8E764130020EB3B0100FA
:100B2800900000202DE9F843134C80460025FFF77C
:100B380051FF2746DFF84C90D9F80020AA4205DC7F
:100B48000E4940460DF053FA00260FE0206880B1A8
:100B580021794FF4B0120CF081F9064648B107EB41
:100B6800C5052A79064940460DF05DFA3046BDE8CC
:100B7800F88301350834DFE764130020C73B010020
:100B8800A83B01009000002008B50948036803F05D
:100B98000703022B03D9074A03210CF079F940F621
:100BA800354000210BF0C2F9002000F087FD00BF9E
:100BB8008C040020863B01002DE9F04188B0AA4C46
:100BC80000AF236803F00703022B27D96D4688B0CE
:100BD8006A46A64B5361A64B93614FF40073938307
:100BE800A44B42F8103F00234FF4E651204601F091
:100BF800DFF92368AD4603F00703022B0ED99E4A9E
:100C0800032120460CF044F9236803F00703022B64
:100C180004D99A4A032120460CF03AF9984810F072
:100C28006AF9236880B95A0704D00121954A8E4889
:100C38000CF02EF9944810F05EF9236858B95B0758
:100C480031D0924A01212BE003F00703022BF1D99E
:100C58008F4A0321EBE703F00703022B04D98D4ADF
:100C6800032181480CF014F9FB1DBB600325002308
:100C78003D74FB6084483B7C826843F002033B740C
:100C880096686B23012207F10801B0470346002844
:100C980063D1236803F00703022B04D929467E4A4F
:100CA80071480CF0F5F87D4810F025F92368002804
:100CB80060D1580704D00121794A6B480CF0E8F854
:100CC800784D284610F017F92E460346002858D1CB
:100CD800226851071CD029686D4688B06A46724858
:100CE800C2E905014FF400719183624942F8101F6F
:100CF8004FF4E2515C4801F05BF9AD46236803F01C
:100D08000703022B04D9694A032157480CF0C0F89D
:100D1800674E304610F0EFF835460346002840F09D
:100D28008480226812F0060F12D06C4688B03168B1
:100D38006A466048C2E905014FF4007191834D4944
:100D480042F8101F4FF4E451474801F031F9A54625
:100D580000202037BD46BDE8F08122685607A2D0A2
:100D6800554A012140480CF080FE23685D079AD05F
:100D7800524A67E703F00703022BA1D9504A03211F
:100D88009BE7236803F00703022B13D92B686D46F2
:100D980088B06A464B49C2E905134FF40073938340
:100DA800344B42F8103F00234FF4E6512E4801F02F
:100DB800FFF8AD4600230125BB710F223B74BB1D14
:100DC800C7E905350723FA71FA1DBA60FD603B775C
:100DD8003B7FB26843F002033B7796686A2302229E
:100DE80007F108012F48B047034658B9236803F0B4
:100DF8000703022B82D9BB79334A03211A480CF026
:100E080034FE7BE7226852073FF478AF2F4A294621
:100E180015480CF02AFE23685B073FF46FAF2C4A95
:100E2800294611480CF034F868E72A4A0921304667
:100E38000CF014F8002853D0236813F0060F87D05D
:100E48006C468AB033686A462349D3610923136222
:100E580040F201339384214BC2E9051042F8103F58
:100E680000234FF432516FE78C040020453C010009
:100E7800863C010003000001963C0100C93C0100CA
:100E8800001D0100E93C01004C1C0100593D010016
:100E98001F3D0100753D01008F3D0100241D01002B
:100EA800223E0100701C0100823E0100573F0100F4
:100EB800E01B01007B3F0100B83D0100ED3D010052
:100EC800613E0100A53E0100C33E0100FC3E010059
:100ED800293F010011000100993F010005000001B0
:100EE800B668D6F81880B8F1000F32D02B694FF0E9
:100EF800A0721B68092113F4007F14BF4FF0007320
:100F08004FF080632846C04728BB1849184B4B60F0
:100F18004FF400738B60F36913B101222846984798
:100F2800236803F00703022B7FF612AF6C468AB0E2
:100F38002B686A460F49C2E905130923D3614FF4A8
:100F4800007313840C4B42F8103F00234FF41351E5
:100F5800FAE66FF05700236813F0060F3FF4F8AE77
:100F68006C468AB02B686A4604496EE7581300201D
:100F7800910B0000F63F010004000001C13F010091
:100F88002DE9F04F1F4691B002F004030193C2F31C
:100F9800C20301330593830705460E460392DDF825
:100FA80068B040F08F81041D002840F08E8101F068
:100FB80007063444C6F108064FF0000A4FF0FF3226
:100FC800D1464FF004087B1ECDF808A0CDF810A03C
:100FD80005B127600598002807DC88488742C0F0DB
:100FE800AA808748874280F0A680039911F0020EF4
:100FF80000F0C1804FF0010C601BBEF1000F00F043
:10100800A080B0F5007FC0F09C806FF0150058E01C
:1010180020385A2834D8DFE800F0603333603332A0
:1010280033333333706033606033606060606060B6
:1010380060606060333333333333334433333344A2
:101048004444333333336033333333333333333319
:10105800333336333333333333333344333636442D
:10106800444460365E3360332E362E3333866D3615
:10107800333336336D0000204FF0000A0EE0013A9A
:101088004FF0000A29E013F8010C6C284DD113F831
:10109800020C6C284FF00000824649D04FF004083B
:1010A8002CE00CF1070B2BF0070B07340BF1080CA5
:1010B80024F0070465B106982044B04204D96FF0C3
:1010C8001B0011B0BDE8F08FDBE900ABC4E900AB51
:1010D8004FF0000A08344FF0080813F8010F0028F1
:1010E80000F08280BAF1000F92D12528F5D14FF097
:1010F800010A01324FF00408EFE70020013C4444A4
:10110800B4FBF8F408FB04F425B1A8EB050EA644DB
:10111800B645D4D800284AD0E34605985BF8047B46
:101128000138059054E75046A6E700208246E5E7D7
:101138004FF00808E2E703994FF0000C01F0020EA7
:101148005AE7B9F10F0F3FF660AFF5B110A901EBFF
:10115800090EC0F387000EF8200C0EF8102CBCF115
:10116800000F0ED060F07F000EF8200C02980130BE
:10117800029009F10109C5F108000434DC46069023
:10118800ABE7049801300490F3E7BCF1000F01D0FD
:101198000136EEE7019802360028EAD13846CDE953
:1011A8000623FFF76DFBDDE906230644E1E7B8F106
:1011B800040F08D10CF1040115B1DCF8000020601F
:1011C80004348C4689E7B8F1080F7FF41EAF0CF1A0
:1011D800070B2BF0070B0BF1080C1DB1DBE9000125
:1011E800C4E90001083478E7631BB3F5806FBFF4E6
:1011F8000CAF3DB9A6F10804E01862E7AC1A01008B
:1012080090720100019A9B0828602B709DF810309D
:101218008AB16870EB70029BAB702BB1002208A9F1
:10122800C5F10100914509D14FF00008C5F1010A47
:101238000DF1300B35E06B70019BEBE711F8013BCA
:1012480013F0800F08D000EB040CB44503F07F03C3
:101258003FF635AF04F8013B0132E3E7029B23B1C7
:1012680008AB13F90830002B19DB019BEBB118F818
:101278000B3004F8013B00230AEB04021A44B24283
:101288003FF61DAF08AA12F80820394604F8012BCA
:1012980020461A46039310F079F9039B1C4408F181
:1012A8000108C145DAD1601B0BE708AB13F8083019
:1012B800019A55F8237045F823203846FFF7E0FADD
:1012C800431CD9E76FF00D00FBE607293FF674AE23
:1012D800F5E600BF2DE9F04F97B000AF7B62D7F875
:1012E80080300546C3F3C003FA623B6290F802B04F
:1012F800B96249B98846047846780BEB84040444FB
:1013080046451CD8631BBB62BBF1000F20D0D7F841
:10131800803003F00104EB78FB611BB1D7F8803013
:10132800980717D4B4B9FB6A1BB1D7E90921284635
:101338009847BE6A30465C37BD46BDE8F08F013439
:101348002046FFF79DFA0130044408F10108D7E769
:101358005C46E0E72B783B619B00BB616B687B6177
:10136800BB6905EB030AFB6A002B40F08E80BE6A5E
:101378000AEB0B09002C66D0D0461C46C8454DD157
:10138800D344D7F880304FF0000A13F0050F0CBF94
:1013980002230123DFF80893BB62FB699A45C9D28F
:1013A8000BF1020B1BF8013CB94A55F82330934264
:1013B800C0F06681B74A93423A6A2CBF4FF00008E2
:1013C8004FF00108002A40D07B621BF8023C786984
:1013D8001946FB620BF07DFE7B6A002835D0D9F8F0
:1013E800003013F0060F15D0E8468AB06A46AA4BBB
:1013F80053617B699361FB6AD3614FF40073138473
:10140800A64B42F8103F00234FF41251484600F013
:10141800CFFDC546023E0AF1010ABEE718F8013BB6
:1014280055F82300FFF72CFAD7F88430013043B180
:10143800D7F888309C423EBFD7F8843023F8140090
:10144800013406449AE7CB469BE7B8F1000F06D073
:10145800D7F88020D10706D4BB6AF61ADBE7D7F89D
:1014680080209207D7D51846FFF70AFAD7F88430B4
:101478004BB1D7F888309C423FBFD7F88420431C33
:1014880022F8143001340644C5E7002C40F0EA8005
:10149800BBF1000F5ED0D7F88030580700F1EC8020
:1014A800A0460022DA440AF10203F9698A4254D3B9
:1014B800D7F880204FEA41096E78D7F88010920754
:1014C8000AEB09033B6258BF4FEA580204EB0603D4
:1014D80048BF0022C807DBB200F18D8011F0040F6D
:1014E80014BF414600216B70A970EA70B9697A6A25
:1014F8002846FB6A9847B0F1000AC0F2AF803B6902
:101508006E702B70FB6985F802B0EB707A6A414601
:1015180007F14800FB6A9847061EFFF60BAFBB6948
:10152800386A4B4403EB0B01D7E90923591AFB6AC4
:1015380098470028C0F294804FF0000B56440644A8
:1015480007F1380AA34558D300217A6A0846FB6A8E
:101558009847EFE6D8465C46A3E713F8016C4C4879
:1015680055F8261013F8029C814203D3494881425A
:10157800C0F09880396A41B30021F960786949461A
:10158800C7E901320BF0A5FDD7E90132D0B9F968F6
:10159800D9B1D7F88010C90707D507F15800611CE1
:1015A800044404F8206CCCB20CE0D7F8801048074B
:1015B80008D507F1580008F10101804408F8106CBB
:1015C8005FFA81F8013202336FE7D7F88010890794
:1015D800E3D407F15800404408F1010100F8109CD9
:1015E80007F1580008F1020850FA81F15FFA88F80B
:1015F80001F8106CE6E7002175E71BF80A3087F858
:10160800373055F82390D7F8843023B3D7F888308B
:101618009B4520D2D7F8843033F81B807A6A0121A1
:1016280007F13700FB6A9847002819DB0644B8F130
:10163800000F05D14846FFF723F901301FFA80F85B
:101648007A6A41464846FB6A9847002808DB064400
:101658000BF1010B76E74FF00008DFE7564669E625
:10166800064667E65C464FF0000807F138005A4620
:1016780051460FF08BFF14E7D84607F14800F6E70C
:101688003A6A002A3FF4EBAE4FF000089CE600BF30
:10169800AC1A010090720100D14001000400000161
:1016A8005C040020396A00293FF473AF396A64E7A3
:1016B800014B1860704700BF9400002008B5EFF395
:1016C8001183202383F31288BFF36F8F04F028F966
:1016D80002480BF01DFD0DF0A0FCFCE78541010060
:1016E8002DE9F84FB0F81890044619F008080DD005
:1016F80001290CBF49F0100949F02009A0F81890F9
:1017080082F31188BFF36F8FBDE8F88F09F00709DE
:10171800022907D120460BF086FF0028F0D00128C7
:10172800238B4AD16769238B002F15DA2568C4E912
:10173800008823F0070343F0010323830026238B4B
:1017480003F0070ACA4502D0A168002956D10DB98D
:10175800002E6CD0002152E003F00701481F012839
:101768001CD823F00703062925689BB2C4E9008822
:1017780002D15DB943F00203238320460BF053FFE7
:101788000028DBD0238B43F02003D6E72946608B63
:101798000130608309680029F9D1EBE704290AD1EF
:1017A80023F0070399B2218320460BF03CFF10B1C8
:1017B80041F0200121830025C0E7032809D12169D0
:1017C80023F007030E6843F00603002523832F4602
:1017D800B5E7042806D1216923F007034E6843F0D2
:1017E8000403F2E7052806D1216923F007038E6870
:1017F80043F00503E9E700252E46E8E7012143F019
:101808000803238382F31188BFF36F8FF1B97DBB7F
:1018180016B120492046B047EFF31182202383F305
:101828001288BFF36F8F238B23F008032383238B46
:10183800D90627D5012123F010032383B4F8189083
:1018480009F0070900297FF463AF59E7A168002967
:10185800DDD0D1F80090D1F804B03B46524620467E
:10186800D847B9F1000FD2D04946D9F80090F2E72D
:10187800D5F8009029463B46524620460BF0EFFE2D
:101888004D46C4E713F020011EBF23F02003238335
:101898000221D3E793D6000030B5002289B00F4962
:1018A8000F480FF014FD002200230024CDE9062381
:1018B8000E230C4DCDE90334CDE9014400940A4BC5
:1018C8004FF440720949284609F0F4FF08492846B0
:1018D80009F044FF204609B030BD00BFFD180000E4
:1018E8000809002040090020511D000000220020A6
:1018F800AE410100014809F001BD00BFE404002029
:101908002DE9F047054607464FF00108DFF84C90EF
:1019180015B93846BDE8F08795FAA5F4B4FA84F409
:1019280008FA04F6F643240109EB040A9AF80C3085
:101938003540002BECD059F804301B6943B94C44AE
:10194800636804221968504637400CF009F8DFE74D
:10195800504698470028DBD1F1E700BF0429010071
:101968002DE9F0478146204888460BF0D5FF00282E
:1019780033D000252846BDE8F087237B7BB1236858
:10198800DB680BB12046984763689F7123681B6921
:10199800DBB963680422196820460BF0E1FF0136C1
:1019A80010345445E9D3B9F1000FE3D0002DE0D04D
:1019B8002846FFF7A5FF0546B8F1000FF6D000212D
:1019C80040F239100AF0B2FAF0E7204698470028AA
:1019D800DFD007FA06F31D43E1E7044C0646054647
:1019E800DFF80CA00127DCE77015002004290100AE
:1019F80034290100014B53F820007047282C0100BE
:101A080008B530B1044B1860084600F045FD0020C9
:101A180008BD6FF01500FBE79800002010B5044CD6
:101A2800227812B9034809F069FC0123237010BD1C
:101A380030210020E404002010B5044609480BF0CA
:101A48006BFF3CB1084BD3E8EF2F013AC3E8E12F15
:101A58000029F8D105480FF046FCBDE810400448BD
:101A680009F04CBC6C150020641500200809002002
:101A7800E40400200020044BD3E8EF2FC3E8E10F73
:101A88000029F9D1104670476C15002070B5FFF792
:101A9800F1FF0646074C084DAC4200D370BD6368A1
:101AA8005B792BB123685B6813B1314620469847B0
:101AB8001034F1E7042901003429010010B5044C61
:101AC800044920460BF047FC034B1C6010BD00BFC7
:101AD80014040020382C01006815002000230E4A49
:101AE80010B513700D4A0E4913600E4A0E48136064
:101AF800FFF786FFFFF7E2FF00F082F90B4B0C4976
:101B080018468B4200D310BD1A1A5C6812110132B4
:101B180022711033F5E700BF312100206C15002039
:101B280040420F00641500201DD90000042901005F
:101B38003429010001460022002301480BF02DBC86
:101B48001404002001480BF0C7BC00BF1404002097
:101B5800024B014618680BF010BD00BF6815002045
:101B680001480BF045BD00BF140400202DE9F047E3
:101B7800374B1878002868D0FFF7E4FF054600289F
:101B88005FD1344B344C1B68002B1DDD0FF09DFBDF
:101B98004FF47A73A0FB038903FB019947F61222DD
:101BA800002340464946FEF7DBFCD4E90032C61A5A
:101BB8004FF0000361EB02074FF47A72BB4208BF93
:101BC800B24201D2FFF762FFD4E9003213F57A730B
:101BD80042F10002C4E90032BDE8F047FFF7C0BF98
:101BE80063685B793BB129784B0713D5236829468D
:101BF8001B682046984710345445F1D32846FFF710
:101C0800A7FF164BD3E8EF2F013AC3E8E12F0029CD
:101C1800B7D0F7E72846B5F80080C1F3C20900F04D
:101C280097FAC8F382180246B8F1000FDED00028F0
:101C3800DCDB01234946204600F094F94045DAD31D
:101C4800D4E7074CDFF81CA0D6E7BDE8F08700BF53
:101C5800302100206C1500200009002064150020A8
:101C6800042901003429010013B518480BF054FE6B
:101C7800174B1B7873B1EFF31184202383F3128879
:101C8800BFF36F8FFFF772FF84F31188BFF36F8F75
:101C980002B010BD0F4B1B68002BF9D050B90022C1
:101CA80000230D48CDE9002347F6122200230AF04D
:101CB8001BFDEDE70928EBD107480FF014FB074897
:101CC80002B0BDE8104009F019BB00BF6415002040
:101CD800312100207415002008090020E4040020A8
:101CE80010B5064B04461B6898472146A060044877
:101CF8000BF0D3FBBDE81040FFF7B6BF98000020FB
:101D08001404002070B50D4D297861B90120FFF742
:101D180027FE0B4C0B4EB44206D3FFF727FF0028D3
:101D2800FBD101232B7070BD63685B791BB12368FD
:101D380020469B6898471034EDE700BF312100200A
:101D4800042901003429010000212DE9F047084643
:101D5800FFF706FE044648B340F21B6600270AF068
:101D680039F91B4B186030B11A4B1B68092B02DD7F
:101D7800194809F0C3FA0025DFF86490DFF858A085
:101D880044B12046FFF7BCFD044618B94FF0FF36B2
:101D98004FF0FF37FFF7EAFE804628B9B5B932465B
:101DA8003B46504609F0E4FA4546E9E74FF0FF366E
:101DB8004FF0FF37D3E72B689B691BB100222846F9
:101DC8001146984710354D45F5D3E8E7034DFAE736
:101DD8007415002064150020E40400200429010083
:101DE80034290100044A054B9B1AB1EBD30F34BFC9
:101DF80052F83100002070474C28010004290100E6
:101E080000210B480B4B30B51B1A0B4CDB08043078
:101E1800994200D130BD10F83120256802F0070240
:101E280025F007052A4344F8042B0131F0E700BFE9
:101E38004C2801000429010058040020F8B5074681
:101E480000240A4E0A4DAD1BED08AC4203D14FF0F9
:101E5800FF342046F8BD56F8340020B13946FEF765
:101E6800FDFC0028F5D00134EFE700BF4C28010045
:101E78000429010000282DE9F047884615461F4629
:101E88001DDA4FF0000A5446DFF8A490244EA6EB62
:101E980009063609564509F1100902D12046BDE860
:101EA800F08759F80C0C3B462A4641460079FFF763
:101EB800E1FF844238BF04460AF1010AEAE7194BF8
:101EC800194AD21AB5EBD20F2EBF002403EBC50373
:101ED8001C7914B1BC4228BF3C460723C0B2134A40
:101EE80000EB400003FA00F152F8253023EA010321
:101EF80004F0070101FA00F003430321002023FA4C
:101F080001F606F00706B04201F1030138BF30467A
:101F18001E29F4D123F00703034342F82530BDE717
:101F2800342901004C28010004290100580400202C
:101F380004290100F8B506460F460024074D084B52
:101F4800ED1AED08AC4200D3F8BD002122B23B46A1
:101F5800304601340BF0FCFCA4B2F3E7042901007D
:101F68004C28010070B14168087973B1002A17DB69
:101F78000C49C0B200EB400351F82200D84000F0F1
:101F8800070070474FF0FF30EFE707490748401A4E
:101F9800B2EBD00F3ABF01EBC2010879184670477F
:101FA80004207047580400204C280100042901002F
:101FB8002DE9F04F8FB0C1F34A2804AFF86092467C
:101FC800BB600C46B8F1000F60D000250423C7E9B8
:101FD80007557D6202930A2307F1140600930196C0
:101FE80007F11C032A4641465046FFF773F9B0F53E
:101FF800006FC34603461FD32948036813F0060F32
:1020080016D06C468AB0DAF8043004AA2549C2E929
:10201800051340F2FF73D3614FF400731384224B0E
:1020280042F8103F4FF412512B46FFF7C1FFA54667
:102038002C37BD46BDE8F08FC0F30A0868F3532477
:1020480000EB1450173020F0070080087B60FFF782
:1020580071FD814688B17B6800F11002C7E9083537
:102068000423FA61CDE901630A23104A0093594613
:1020780007F11C035046FFF72DF968F35324BB689A
:102088002246F96848460BF09FFCD1E7080D173047
:1020980020F007008008FFF74DFD8146EDE700BFFF
:1020A80080040020C341010004000001A3D90000FE
:1020B8002DE9F04F87B08346DDE9126788469246DE
:1020C8009946109C86B3102100973346119A002038
:1020D8000597FEF755FFB0F5006F014626D200259B
:1020E80004F1170008446FF307056BF3C50520F0EA
:1020F80007006AF38815800861F353250391FFF7F9
:1021080019FD64F31F55044638B136B100973346BC
:10211800119A03991030FEF733FF4B462A46414681
:1021280020460BF051FC0CE03146D8E7064803681E
:1021380013F0060F05D040F2FF73044A02210BF09A
:1021480094FC07B0BDE8F08F800400200242010033
:10215800406820B1034BC01A40F38F0070474FF01E
:10216800FF307047580400200EB403B503AB53F892
:10217800042B01460448019303F06AFA02B05DF8A3
:1021880004EB03B0704700BFD5DA00002DE9F04F2B
:102198008BB09846169B9DF854900793179B04465E
:1021A8000493189B0F4693460593199EB9F1000FA7
:1021B80000F0EC8006F00103089306F0080306938C
:1021C80006F4807306F0020A09930BF0BFFB20B1F6
:1021D800024685492046FFF7C7FF0546BAF1000FBA
:1021E80009D016F0440F40F0A4803A467F492046B3
:1021F800FFF7BAFF0544089B53B17D4B7D4953F85F
:1022080029207D4B2046002A08BF1A46FFF7ACFF5D
:10221800099B002B069B18BF4FF00008002B00F00D
:10222800B380764B764953F829202046FFF79CFF68
:102238000746BBF1000F05D05A4672492046FFF702
:1022480093FF0744B8F1000F05D042466E49204677
:10225800FFF78AFF07446D483D44079B1BB12246A0
:102268006B490AF007FF059B002B49D0DFF8C481B2
:10227800059F102F28BF1027F30606D4B00640F19B
:102288008D8064492046FFF76FFF4FF0000A5545DF
:1022980000F386804FF0000ADFF89CB1574540F202
:1022A8008F80049B594613F80A202046FFF75CFFED
:1022B8000AF1010ABAF1100F79D157492046FFF700
:1022C80053FF4FF0000BDFF874A15F4540F28680A2
:1022D800049B514613F80B202046A2F120035F2BE4
:1022E80028BF2E22FFF740FF0BF1010BBBF1100FA7
:1022F8006BD1049B3B440493059BDB1B0593B7D12F
:10230800B9F1000F0FD0F10704D53B4A39492046EF
:10231800FFF72AFFF20606D4B3064CBF3D493F49F2
:102328002046FFF721FF20460BB0BDE8F04F0BF029
:10233800C0BB3B4B186800283FF45CAF394B4FF4E7
:102348007A711B684FF4616CB7FBF3F7B7FBF0F3D6
:1023580000FB13774F43B3FBFCF2B7FBF0FA4FF0E7
:102368003C0E0CFB123C00FB1A77BCFBFEF34F4300
:10237800B7FBF0F70EFB13C1CDE901A7009120468A
:102388002949FFF7F1FE35E7069F52E71F48274B1B
:102398004D46B8F1010F18BF18465EE71F4971E7AF
:1023A80041462046FFF7E0FE0AF1010A6FE71AF0FE
:1023B800070F7FF473AF41462046FFF7D5FE6DE760
:1023C8001B492046FFF7D0FE72E71BF0070F7FF48A
:1023D8007CAF41462046FFF7C7FE76E741462046D8
:1023E800FFF7C2FE80E700BFE34E01003F42010055
:1023F8004C2C0100784801003A420100602C010091
:10240800644201006A4201006E420100D5DA000010
:1024180059560000544601008042010073420100F1
:10242800781500207C1500204842010003DB0000DD
:102438007C4201007E42010076420100C34E010049
:1024480042F20F7373B58B4228BF0B4605680446EA
:102458000E4A052168460AF05BFA06466368284674
:102468005B680B220A490BF016FB63683246694623
:1024780028465B680BF00FFB63681B225B68054905
:1024880028460BF008FB02B070BD00BFA55F010035
:102498009E4201008242010001230021074A10B533
:1024A800074C1360A04204D801B11360054B1860B3
:1024B80010BD40085B000121F4E700BF7C15002037
:1024C80040420F0078150020F8B50D460446064F27
:1024D8004618B44201D12846F8BD14F8011BBB6860
:1024E8000148DB699847F4E7281C0100014B0360A9
:1024F80000207047A82C010010B504460EF0B6FA6B
:102508000349024620460BF072FD002010BD00BFB3
:10251800FB420100F7B513460022054601920A2145
:1025280001AA58680CF053F8019CA4B920EAE0719C
:1025380040F2E73647F612200027C0FB01674FF448
:102548007A72002330463946FEF70AF809F0EEFCA5
:10255800204603B0F0BD2246024928460BF063FD31
:10256800019CF5E72743010008B5034A03490BF02E
:102578003EFD002008BD00BF174401001D440100B6
:10258800F7B517460023054601AA0A21B868019342
:102598000CF01DF81749C6B228460BF036FD019C11
:1025A80044B12246144928460BF03DFD019C2046C3
:1025B80003B0F0BD042E09D93246104928460BF065
:1025C80032FD28460BF081FD0124F0E77868FFF71B
:1025D80035FC021E07DA7A68094928460BF023FD04
:1025E8006FF01504E3E7334612B2214620460BF09C
:1025F800AFF9DCE748440100AE440100D5440100CE
:10260800EC440100002307B50090694604488DF8A2
:10261800043009F039FE9DF8040003B05DF804FBAE
:1026280007DC000010B5044606F04AFB07490246DD
:1026380020460BF0DCFC204605490BF0D8FC21466F
:10264800044809F03BFE002010BD00BF774501009B
:102658009645010061260000F0B58FB004460D468E
:10266800D0F8A0600EF017FD074609F0B3FC204B28
:102678002049002F08BF1F461F4A2346844208BF2F
:102688000A46009728461D490BF0B1FCD4E90A23F5
:102698002846CDE900231A4994F90E30227B0BF025
:1026A800A6FC06A92022204609F068F8636E0246B7
:1026B800144928460BF09BFC05A920460EF0F9FCAE
:1026C800024628B1104928460BF091FC0FB0F0BD26
:1026D8006422059B2846F11A4A43B2FBF6F20091A0
:1026E800CDE90162094932460BF081FCEEE700BFF3
:1026F800A0450100D35801007E420100A345010016
:10270800AF450100DB450100F24501001F4601000D
:10271800F0B50024054691B008AF1A22144E2021C6
:102728003846CDF83A40ADF83E400EF057FF2946FE
:10273800104809F0C3FD07AA4FF4006130460EF0B7
:10274800ACFC6423079A2846C2F500614B43DB0AB8
:1027580005934FF400630097CDE90313CDE90132E7
:102768000549234632460BF042FC204611B0F0BD25
:10277800403E0020852700006B46010070B50546E5
:1027880088B00E46D0F8A04007A90EF092FC024689
:1027980028B10F4930460BF02AFC08B070BD284616
:1027A8000EF079FC6423079A0094A11A4B43B3FBFB
:1027B800F4F3CDE90343074BCDE90121002818BF05
:1027C80003462A46044930460BF011FCE5E700BFF2
:1027D800F2450100A0450100B446010038B5134692
:1027E80005461022002158680EF0DAFF0446FFF76C
:1027F80009FF38B922460D4928460BF014FC6FF042
:10280800150038BD09F0E6FB844204D10849284682
:102818000BF009FCF3E7204609F062F92846224646
:1028280004490BF0E4FB0020EBE700BF1847010068
:10283800334701005B47010038B5134605461022AF
:10284800002158680EF0ACFF0446FFF7DBFE38B9EC
:1028580022460D4928460BF0E6FB6FF0150038BDFF
:1028680009F0B8FB844204D1084928460BF0DBFB89
:10287800F3E7204609F054FA2846224604490BF0AB
:10288800B6FB0020EBE700BF184701009A4701009C
:10289800C047010038B51346054610220021586884
:1028A8000EF07EFF0446FFF7ADFE38B922460D490B
:1028B80028460BF0B8FB6FF0150038BD09F08AFB0D
:1028C800844204D1084928460BF0ADFBF3E72046C3
:1028D80002F088FB2846224604490BF088FB0020BA
:1028E800EBE700BF18470100FB4701002048010043
:1028F8002DE9F04F87B00546684608F043F92427CC
:10290800009B284A07FB0037082128460BF054FB98
:10291800DFF8ACA0009CBC4203D3002007B0BDE8A0
:10292800F08F23680BB11A7832B923461E4A142156
:1029380001A809F0EDFF01AB1C4A082128460BF05D
:102948003BFB20460EF0D7FA194B1A4A002818BF4D
:102958005346082128460BF02FFB236AB3B11E68A3
:10296800A6B1336893B1144A082128460BF024FB1A
:102978004FF00008DFF84CB006F10409336843450E
:1029880006D80E4A082128460BF016FB2434C2E765
:1029980059F8043B5A46082128460BF00DFB08F16C
:1029A8000108EBE76748010071480100764801001B
:1029B8005E4801001D4F01007B480100544601009C
:1029C80058480100774801002DE9F041144688462F
:1029D80007461022002160680EF0E2FEB8F1020FEF
:1029E80006461DD90A220021A0680EF0D9FEC5B2FC
:1029F8002B46204A082138460BF0DEFAB8F1030FBF
:102A08001ED8102D0ED0202D0FD0082D0FD13378C1
:102A1800DBB2194A082138460BF0CEFA00200DE047
:102A28002025E5E733889BB2F3E73368F1E73846BA
:102A3800124A08210BF0C0FA6FF01500BDE8F081CA
:102A480010220021E0680EF0ABFE0D4A0346044652
:102A5800082138460BF0B0FA102D06D0202D07D0EB
:102A6800082DE4D1E4B23470D8E7A4B23480D5E7B5
:102A78003460D3E7D648010001490100EB48010062
:102A88001249010070B50E4C054623780E4631B147
:102A98002BB10C490BF0C7FA6FF00F0070BD83F033
:102AA800010323702BB1084928460BF0A0FA012333
:102AB8002370284631460BF026FB0020EEE700BFC6
:102AC80035210020B9490100F449010000232DE90E
:102AD800F74F804617460E4629492A4D0B602A496A
:102AE800DFF8B890DFF8B8B02B700B60012E3C46C9
:102AF80057F8043F1FD918460222494601930EF0A1
:102B080090FD019B78B99A78003218BF012203EB37
:102B1800020A1E49022250460EF083FD28B90123FD
:102B28002B70013EE2E70022F1E749465046FDF7E7
:102B380095FEB0B904340022606811460EF030FEEC
:102B48000022134B1146186060680EF029FE114BE5
:102B5800114918604046FFF795FF002003B0BDE813
:102B6800F08F9AF800202D2AE5D19AF80120002A42
:102B7800E1D05246594640460BF039FAD1E700BF3A
:102B8800B015002036210020B8150020A149010009
:102B9800AC150020B4150020AD2B00009E490100A3
:102BA800A449010070B53E4B05461878182802D193
:102BB8000878112831D00846013A8C18844225D16A
:102BC8008A5C384C1A700A78A2F13003092B04D9B0
:102BD80022F02003413B052B04D823683249CA540C
:102BE800013323602368022B33D1102200212E48A1
:102BF8000EF0D6FD2D4A136803F8010B13602C4A1A
:102C08001368013313600023236022E010F8016B7E
:102C1800182ED3D10678112ED0D1254C25492268FB
:102C280028460BF0E4F900212846FFF72BFF224B3A
:102C3800187870B9214A23681168042B0ADC08B196
:102C48001160236013F003010BD1126813681BBADB
:102C5800136070BD0868043B00BA41F8040B0120FA
:102C6800EBE75B4203F0030358BF5942022907D13F
:102C780012681168C1F3072343EA01239BB2E7E70F
:102C88000329E6D1106802681104C2F3074301F46E
:102C98007F010B4302F47F4213430360D9E700BF6F
:102CA80037210020B015002033210020AC1500206A
:102CB800B8150020BC48010036210020B4150020BA
:102CC80000232DE9F04F92464FF0FF35012287B0DF
:102CD8000193494B074689461A604FF0200802F0D5
:102CE800F9FC2C46DFF830B1444E51465A46484666
:102CF80002F014FD411C06D16A1C33D14049384604
:102D08000BF091F913E0732814D077281ED06128AE
:102D18000DD101AA102130680BF059FC019B054622
:102D2800002BE2D03268374938460BF07CF96FF057
:102D380015005DE001AA002130680BF048FC019BFA
:102D48000446002BD1D032682F49EDE701AA0021B3
:102D580030680BF03CFC019B8046002BC5D03268E4
:102D68002A49E1E7631C01D12949C8E75FFA88F6D7
:102D78004FEAD608002C3AD002AB00211A4609E0E7
:102D8800102E1BD0202E1FD0082E2AD1495D197075
:102D980001464344A04503D801EB08001028EFD9A9
:102DA800102CA14628BF4FF0100929464B4638463B
:102DB80000F056FF1035A4EB0904DBE7495B89B244
:102DC8001970090A5970E3E749594FEA112C19702B
:102DD80083F801C04FEA114C090E83F802C0D9707C
:102DE800D6E70C4A082138460BF0E6F89FE720465C
:102DF80007B0BDE8F08F00BF38010020881E002012
:102E08006749010026490100394901004C49010080
:102E180084490100EB4801006049010010B544688D
:102E2800C4E90012A36042684021134653F8404B9E
:102E380051635362002302F13801C2E904130821E7
:102E4800C2E90A33C2E9063313631162C2F8B83023
:102E5800A36823B19B6D13B1044920469847A36822
:102E68009B6B0BB120469847002010BDB12E000087
:102E780007B50A480EF03FF860B10423084A0093EA
:102E8800126801230549074800F048FF002003B0F5
:102E98005DF804FB6FF01200F9E700BF281C010081
:102EA800902D0100642901002DE9F04F054685B0F9
:102EB8000C4683685B6D03B19847AB685B6C002B6D
:102EC80034D10026DFF81091DFF810B104F124089E
:102ED800238E228D616BD21A92B28B1A8B4204F127
:102EE800280A28BF0B4603AA514640460AF071FC3F
:102EF800074600283DD0AB6803999B6A002B35D064
:102F0800024628469847031E1A46514640460193F2
:102F180018BF01260AF093FC019B0BB1BB42D7D026
:102F280046B1D4E901310020984703E02846984784
:102F38000028C6D1AB685B6B93BB628BE38A04F154
:102F480010079B1A226A9BB2934204F11A0828BF01
:102F58001346414603AA38460AF03BFC064630BBF6
:102F680028460AF062FEC4F8B8602CE06FF05700FB
:102F7800C9E7D9F8003013F0060F04D002215A46E9
:102F880048460AF069FDAB689B6A33B101220DF12E
:102F98000B01284698470346BFE76FF05700FAE74A
:102FA800284698470028C8D105B0BDE8F08FAB681F
:102FB80003995B6A63B10246284698470246414630
:102FC80038460AF03CFCD4E9013101209847EBE788
:102FD8006FF05702F3E700BFA40400209D4B0100E7
:102FE800032307B5054A009312680123002104480A
:102FF80000F094FE002003B05DF804FBFC2D0100F6
:103008003429010010B504468168183101F05CFAD2
:10301800A1682046BDE81040014A183101F0EEB918
:10302800374E0100022210B5836804461A7583687A
:103038009B6CCBB908300AF0F8FEA368D3F8783255
:10304800DB040CD503212046084B094A0BF038FC59
:10305800A0686FF4805100F51E700AF09CFE2046AF
:10306800BDE8104001F020B910BD00BF624E01005C
:1030780078480100F7B5044680680E46D0F87832E3
:103088005A0705D500210AF0ECFEE0680BF0A7FE10
:10309800E368DB6873B9002E3BD0A56805F15607D5
:1030A80038460AF0BCFE002835D0394605F5AB7025
:1030B800FDF7DEFBA2680DF1060356323146E068E3
:1030C8000BF090FE58B9A06800F5AB715630FDF7CB
:1030D800CFFBA06856300AF0A2FEADF806002046E5
:1030E8000BF03AFBA368D3F874329B0603D50B495F
:1030F80060690AF087FE204600F046FFA268BDF826
:1031080006302046A2F85230A268A2F8503000F0EB
:1031180001FF03B0F0BD85F85601CBE73C2B010059
:103128002DE9F04FA7B004465422002111A80EF053
:1031380055FA0023CDE90533A36820465633039397
:103148000BF011FB20460BF08DFA18B9A149606904
:103158000AF058FE00264FF0FF37B346B246354610
:10316800B146A0681422002118300EF037FA204624
:103178000BF0E4F9A168E068B1F8502056310BF083
:1031880068FE20460BF0F7FE0DF144080296DDE9D3
:103198000532012A00F0DD80132B40F2AC80069B3B
:1031A800022B40F0AB808C4B8C4A012115E00223A6
:1031B800039A414606A80BF046F8D8F80420069969
:1031C8000346039229B96FF00705284627B0BDE8E2
:1031D800F08F012905D120B1814A20460BF070FB00
:1031E800F1E7059B5BB3D8F8000001F09FF998B1AF
:1031F80066B1A5680D9618350CAE0FCE0FC53368AD
:103208002B602046FFF7FEFE0125DEE7754A012107
:1032180020460BF055FBD6E7059B83B1D8F8002074
:103228002946204601F01EFB022800F09280032860
:1032380005D0059B0133059301230293A7E7BAF153
:10324800000F06D107AAD8F8001048460BF0EDF891
:10325800054608F10408013F002D3AD0029AEB68B0
:1032680042B1F3B120460BF07EFA204600F052FE40
:103278005D4ACCE7ABB1AE46A368DDF814B003F104
:10328800180CBEE80F00ACE80F00DEF80030CCF8F0
:103298000030AB682BB96B7CFE2B04BF2F7C07F189
:1032A800FF37D5F804C0BCF1000F08D0AE460CAE0D
:1032B800BEE80F000FC6DEF8003033606646A94648
:1032C8001FB9069B022B7FF462AF059B0133059360
:1032D8005DE7059B63B9A368DB6A0BB1DB683BB9A3
:1032E800424B434A00930121119B20460BF0E8FA18
:1032F8004FF0010AE4E7002F7FF459AF029B53B166
:1033080020460BF05BFE1423A26811A956320DEB80
:1033180003000AF098FFB9F1000F0CD099F81130AA
:10332800FE2B08D1059B26AA02EB830252F8542CE7
:103338000AB101330593A068436A73B9002E3FF4BC
:1033480042AFC369B3423FF45CAF0D9600F1180574
:1033580052E7059B132BD1D921E7059D90F828301A
:10336800A5EB0B05BBB14FF6FF7190F82920FF2A9A
:1033780008BF0A469D4202D313449D420BD9836974
:103388001C4A012120460BF09BFA2046FFF73AFE23
:103398006FF0150519E701210AF052FDA06800F544
:1033A80043700AF02DFDA36811AA294602EB8B028F
:1033B8005B6A204698470546A0684FF0FF324FF0F9
:1033C800FF3300F543700AF019FD0021A0680AF0E8
:1033D80037FDFAE654460100EE4D0100C55B0100D9
:1033E800794D01008D4D0100AB4D0100DA4D010012
:1033F800404F0100124E01002DE9F04F044680684D
:10340800B1B0012100F51E700AF0BAFCA3681B7D5B
:10341800022B20D100230993A36860689E6C03687F
:103428001D6909AB0EB310221BA9A847099B93B1CC
:103438000121A0680AF004FD099A1BA92046B0479B
:103448000021A0680AF0FCFCA3689B6C002BE3D168
:103458002046FFF7E7FDA0686FF0010100F51E7038
:103468000AF099FC31B0BDE8F08F01220DF123017B
:10347800A847099B002BEED09DF82330A2681906B7
:10348800CAD4517D032900F2BA82DFE811F00400A2
:103498003A025202B8020D2B1BD00A2B19D0B2F8EF
:1034A80078126FF3CA01A2F87812092B56D039D8CE
:1034B800002B4FD0082B00F07B81A3F120025E2A5D
:1034C800A06800F28B8101210AF0CBFC9DF8231043
:1034D800A7E0D2F87812C1F3C70129B1D2F878125F
:1034E800C1F3C7018B42E0D1B2F8781263F3CA0185
:1034F800A2F87812A568B5F8501069B928460AF0FC
:10350800B0FCE0680BF06BFCB04960690AF07AFC2B
:103518002046FFF787FD7FE72046FFF701FEC5F845
:103528002403F5E71B2BA06812D07F2BC5D1D0F858
:1035380074329D070ED501210AF093FCA368D3F8D5
:103548007432190700F13D8120460BF002FA01E0C0
:103558000123437560690AF0DDFD5DE7A068D0F8D6
:1035680074329B07F6D501210AF07BFCA068B0F8FD
:103578005030FF2BEED00025B0F8522000F1560154
:1035880000F5AB700EF002F8A3681BA9B3F852203F
:103598000BA8134483F85651A268142302F5AB72A2
:1035A8000AF051FE0B991429D4D830AB03EB8103F0
:1035B80043F8545CA368B3F852204AB1134493F813
:1035C8005530202B00F01D82093B042B40F2198254
:1035D800012940F21982013900200CAB00930190B7
:1035E8000AAB1BAA0AF04BFF0646002840F00E82E1
:1035F800B0E71B685A465146184603930EF011F877
:1036080060B9039B1846FDF73BF9814538BF8146F1
:10361800002D08BFB8461FFA89F90135013703E2C2
:103628002021204600F004FE94E7012120460BF0FB
:103638002FF88FE704908DD90A9A30AB03EB8202FA
:1036480052F8543CC346184603930AF0E8FB049B1F
:10365800A2680590A2F840300495A268594618322D
:10366800304600F0E3FB039B0BF1010BD0F800A000
:103678004BB1BAF1000F06D0059A194650460DF025
:10368800D0FF0028E9D1A168BAF1000F58D1A1F8FC
:1036980040A0049B013B0493DFD14C4960690AF0C8
:1036A800B1FB204600F000FE0A9B30AA02EB830320
:1036B80053F8540C0AF0B3FB414611AA8146304630
:1036C80000F0B4FB0746A0683968FF2200F5AB702C
:1036D80008F1010A0DF0B7FFD7F800804FF6FF7721
:1036E80016AA514630460AF1010B00F09FFBD8B1EB
:1036F8000022A368006803F5AB7313F801CB815C63
:10370800614505D121B14FF6FF7101328A42F4D1EA
:10371800B9F1000F01D04A4548DB9742A8BF1746C8
:10372800013D012DBFB241D1002F3FF413AFA7EBEC
:10373800090292B208EB090120460BF008F909E7E3
:10374800234806910AF06BFB069900EB09074A8F9C
:10375800BFB2121A92FBF7F2504692B20791069244
:103768000AF05DFB07993F1AB1F84000069A00F18C
:10377800010CA1F840C0B0FBF2F102FB110292B2B9
:10378800BFB262B9CDF800A0114B124A06212046FB
:103798000BF096F83946204600F0A6FB79E7534629
:1037A8000D4A062120460BF08BF8F3E7DA4697E737
:1037B800A068D0F874329E077FF5CCAE01210AF0DC
:1037C80050FB20460BF0E4F8C4E600BF5446010065
:1037D8007D420100454E010078480100D0F874226E
:1037E80092077FF5B7AE013B162B3FF6B3AE01A2A9
:1037F80052F823F0D9390000593800006138000028
:1038080051350000CD390000873800005D350000D3
:103818005D3500005D3500005D3500008F38000023
:10382800973800005D350000C13800005D350000A4
:10383800CB3800005D3500005D3500005D350000C7
:103848005D350000CF3800005D350000FB38000012
:1038580020460AF091FF7DE620460AF084FF2046C4
:103868000AF000FF18B9934960690AF0CBFA012100
:10387800A0680AF0F6FA2046FFF7D4FB6AE620466D
:103888000AF083FF66E620460AF08AFF62E6D0F86F
:1038980074329F0603D5884960690AF0B3FAA368B1
:1038A800D3F874329E0603D5844960690AF0AAFAEF
:1038B800204600F0F9FC4DE600212046FFF7DAFB30
:1038C80048E60121F9E720460AF046FF04F108001E
:1038D8000AF0ABFA0121A0680AF0C3FAA368D3F88A
:1038E80074329D067FF536AE754960690AF08AFA2A
:1038F80030E6204600F0C4FB0121A0680AF0B1FAC6
:1039080028E65B2B02D10223537523E6D2F87422F2
:10391800900706D5622B08D14FF0FF3120460AF0F8
:10392800E0FE0022A3685A7514E6662BF9D101213E
:10393800F4E700215175A268D2F8741289077FF55F
:103948006BAD313B1B2B3FF605AE01A151F823F0BF
:10395800D5390000E1390000F5390000C939000007
:103968005D3500005D3500005D3500005D35000007
:103978005D3500005D3500005D3500005D350000F7
:103988005D3500005D3500005D3500005D350000E7
:10399800CB380000C13800008738000059380000D3
:1039A8005D350000CD3900005D350000D9390000D3
:1039B8005D3500005D3500005D350000E53900002B
:1039C8000323537520460AF0CEFEC3E5032353753F
:1039D80020460AF0C1FEBDE503235375A068D0F860
:1039E800741201F0010181F001015FE003235375B6
:1039F800A368D3F874329B077FF5ACADA4E5002328
:103A080082E700297FF4E8AD00260A960A9B30AACF
:103A180002EB830353F854AC002550460AF0FFF933
:103A2800A9468346A8462F4616AA3946304600F0CE
:103A3800FDF9034600287FF4DCAD012D7FF4FAADD3
:103A48000A9B30AA02EB830353F8540C0AF0E7F9F7
:103A5800A268054618324146304600F0E7F9066884
:103A680030460AF0DCF9854205D0421B92B2711942
:103A780020460AF06CFFA068B0F85230034493F86F
:103A88005630202B3FF4D1AD093B042B7FF6CDAD4A
:103A9800D0F87432DF077FF5C3AD00210AF0F1F9E1
:103AA8002021204600F0C4FB0121A0680AF0E9F9B2
:103AB80050E500BF54460100412B0100462B010090
:103AC8003C2B010038B5836804461A7D012A2BD1A6
:103AD800D3F87822510408D5D3F87422520704D4B5
:103AE8000146DA6CC0690BF05AF8A06843F609522F
:103AF800002300F543700AF081F90546B8B908219A
:103B0800204600F07FFA0B4960690AF07BF92046ED
:103B1800FFF788FA20460AF04EFFA06800F54370C8
:103B28000AF06EF9284638BD6FF08505FAE76FF0A0
:103B38000F05F7E7544601002DE9F0410446806877
:103B4800154600F51E70002937D04FF480410AF061
:103B580017F9A3680021DD64606803689B689847CB
:103B6800002851D12046FFF7ADFF00284CD1274E41
:103B7800274FDFF8A480A06800F52F704FF0FF32C0
:103B88004FF0FF33032108F02BFE0546A068CDB1A6
:103B980043F60952002300F543700AF02FF998BB49
:103BA80020462B461B4A01210AF08AFEA068BDE880
:103BB800F04100F543700AF023B96FF480410AF030
:103BC800EAF8C6E74FF0FF334FF0FF3200F54370D5
:103BD8000AF014F93246022120460AF091F93A46D1
:103BE800294620460AF08CF92046424601210AF06F
:103BF80087F9606803685B6903B19847A06800F5B6
:103C080043700AF0FDF8B6E7BDE8F081B5DD0000C5
:103C1800013400004B4E0100BFDE000010B5044621
:103C28000A490AF0E4F9204609490AF0E0F9204671
:103C380008490AF0DCF9204607490AF0D8F9204675
:103C4800064A002100F0DAFB002010BDD84B010025
:103C5800164C0100754C0100C94C0100634D010070
:103C68002DE9F04716460A46254904461F46002511
:103C78000AF0BDF9DFF89480DFF89490DFF894A09B
:103C8800AF422CD9725D494620460AF0B0F9013599
:103C9800102D1DD11B4920460AF0A9F90025DFF88F
:103CA8007480DFF87490AF4225D9725D4946A2F15D
:103CB80020035F2B28BF2E2220460AF098F90135F1
:103CC800102D11D12046BDE8F0470F490AF08FB9F1
:103CD8006A07D5D1514620460AF089F9D0E741460E
:103CE80020460AF084F9D2E76B07DCD1414620462A
:103CF8000AF07DF9D7E7414620460AF078F9DEE771
:103D08002D4E010080420100344E01007C4201002A
:103D1800764201007E420100C34E01002DE9F043C6
:103D2800044680688946D0F8201389B0984600294F
:103D380061D116464FF44A720DF050FCE0680BF062
:103D480000F9A06800F543700DF01BF94FF42F77C8
:103D58004FF41F75A06828440DF003FCA0680022EA
:103D6800431901213844103508F026FDB5F52F7F99
:103D780007F11407EED10025A36902211D60A06890
:103D880065F3820600F51E7009F0FAFF5022A36859
:103D980020465A871822A3681A8721680AF067F90B
:103DA800A368164AC3F874626068494603681D68C8
:103DB8002346A8470546D0B90122A3681A75D4E955
:103DC8000A0100220023CDE906230E230393109B4A
:103DD8000495CDE901830094094B4FF4006207F084
:103DE80069FDA368C3F82003616A07F0B7FC284699
:103DF80009B0BDE8F0836FF07705F8E7ABDE0000A7
:103E0800413B000010B5044613460A4601460648E1
:103E180001F01EFC23691B7923B12046BDE8104040
:103E28000AF078B910BD00BF35E1000038B50D467D
:103E3800144658B9154A164B9B1AB1EB930F02D387
:103E48000024204638BD52F82140FAE78368002B49
:103E5800F6D0104A93420AD30F4A934207D21B68FE
:103E68002146284698472368002BEAD1E8E70B4A01
:103E7800934208D30A4A934205D201351422554386
:103E88005C195B59F0E71B68F8E700BF942901004B
:103E9800D4290100002B0100202B0100D4290100A6
:103EA800002B01008368D3F874329B0603D50249BE
:103EB80040690AF0B9BB70474C2B01000A1E0DDCA3
:103EC8000ED042238168D1F87412890608D5002AD9
:103ED800B8BF5242034940690AF0A6BB4123F1E743
:103EE800704700BFBF4E01000A1E0DDC0ED04423F0
:103EF8008168D1F87412890608D5002AB8BF5242E1
:103F0800034940690AF090BB4323F1E7704700BFBB
:103F1800BF4E010010B504460AF0A4FB18B9A0680A
:103F28000AF08FFB28B160690249BDE810400AF029
:103F38007BBB10BD54460100F8B50546846804F102
:103F48003000B4F85020B4F852100AF066F9A868A6
:103F5800A78EE68E0AF075FB18B10A4968690AF05F
:103F680063FBB74207D1218E638E2846C91ABDE884
:103F7800F840FFF7B9BFE18EA38E2846C91AFFF7AC
:103F88009DFFF0E7544601002DE9F0478568064695
:103F980015F1560002D0FCF773FC80B200230446EA
:103FA800984695F83C70DFF85890B268558FED1B2D
:103FB800A54209DB002C1FDD563370691A440F49EE
:103FC800BDE8F0470AF030BB1D442A4492F856A0D9
:103FD80082F85680B26856331A44494670690AF026
:103FE80023FBB3682B4483F856A0B3685B8FDF1BB1
:103FF800E41B2B460027D8E7BDE8F0877848010086
:10400800C55B010008290A4617D8836893F83E1053
:10401800914212D083F83E208368082AD3F874327C
:1040280005D0990609D5054940690AF0FDBA9B06ED
:1040380003D5034940690AF0F7BA7047C64E010034
:10404800512B010038B50D4609780446FFF7DAFF11
:104058006A78072A11D8A36893F83F1091420CD0C8
:1040680083F83F20A368D3F874329B0605D56069AE
:104078000249BDE838400AF0D7BA38BDCF4E010032
:10408800F8B583680546B3F85020002A53D0B3F832
:10409800520000284FD05530184403F15606034605
:1040A800C41AB342A4B219460DD311F80179202FCE
:1040B8003FD019460878013B202804D001349E429D
:1040C800A4B21946F5D9631C4E1C121B194430467C
:1040D8000DF06AFAAA686142B2F8503009B21B1BA7
:1040E800A2F85030AB682846B3F850201344002299
:1040F80083F856200AF0CCFAAB68D3F874329A06E3
:1041080003D50D4968690AF08FFA33460B4A08212E
:1041180028460AF0D5FB2846FFF7C4FEAB68D3F85B
:1041280074329B0607D568690549BDE8F8400AF06E
:104138007BBA0B46B4E7F8BD562B0100784801005E
:104148005A2B01002DE9F84F04460D4617460AB1CF
:10415800FFF7A8FED4F80880D8F87432B8F852905F
:104168005B0725D509F156004044FCF789FB064654
:10417800DFF8B88016F1FF3615D2A368B3F85020DF
:10418800A3F85220A0680AF05CFA28B107B11DB163
:10419800234960690AF048FA69422046BDE8F84FA9
:1041A80009B20AF075BA414660690AF03DFAE1E7DA
:1041B8004046FCF765FBB8F85060B8F83A3006445A
:1041C8004844B0FBF3F1B6FBF3F399421ED0DFF895
:1041D8005080B042A368D0DA598F00F1010AB0FBD1
:1041E800F1F301FB130018B9414660690AF01CFAA3
:1041F800A06809F1010B484490F85630094A204656
:1042080008210AF05DFBD9465046E2E709F156025B
:1042180008EB02030821044A20460AF051FBACE7E8
:1042280054460100C34E010078480100D3580100EC
:1042380013B583688DF80710D3F874220446D007A5
:1042480026D5B3F85210B3F850208A4220D0481C23
:104258009DF80720A3F852000B4483F85620A36862
:10426800D3F87412890711D5D3F87432606913F042
:10427800040F18BF2A220A490AF0D6F920460AF084
:10428800F1F918B1074960690AF0CEF902B010BD1A
:1042980001220DF1070120460AF01FFBF6E700BFD7
:1042A800C34E01005446010010B504468368094A0C
:1042B80002210AF005FBA368D3F874329B0707D5DF
:1042C8002046FFF761FE2046BDE81040FFF734BEE8
:1042D80010BD00BF784801002DE9F84F054691460A
:1042E8000F46002966D000243B5D202B25D0093BD2
:1042F800042B22D9DFF8C0A03846FCF7C1FAAB6816
:1043080080B2598F001BA1EB0903984207EB040800
:1043180015D94046002610F8012B202A06D0A2F114
:10432800090CBCF1040F02D80A2A32D0334609EB33
:10433800060291422CD90136EDE70134D4E7434611
:104348000026B04209D1414668690AF0A8FC6869AC
:104358001949BDE8F84F0AF0A2BC13F8012B04EB89
:10436800060B0A2A12D1686909F0D4FE3246414682
:1043780028460AF03FFA0BF10104514668690AF031
:104388008EFC49462846FFF7AFFDB5E70136D8E76A
:104398001E46686909F0BEFE3246414628460AF0C4
:1043A80029FA34443B5D202B02D0093B042BE4D886
:1043B8000134F7E7BDE8F88F54460100F8B50F4619
:1043C8005168044615461E4611B11A46FFF784FF88
:1043D800AB6883B131462046FFF786FD20463B4651
:1043E800054A08210AF06CFAF21DA9682046BDE8C2
:1043F800F840FFF771BFF8BDDC4E01002DE9F04F22
:1044080088460021044616460D4689B003AA404650
:104418004F1CFFF70BFDA8B98DB126B13246082114
:1044280020460AF04DFA0021DFF89490DFF894B0A6
:1044380003AA404601F1010AFFF7F8FC60B909B088
:10444800BDE8F08F006810B1FCF71AFA80B2854217
:1044580038BF05463946D9E707687FB13B786BB165
:1044680046684B46CDE90057124A082120460AF013
:1044780027FA2EB9104960690AF011FC5146D7E7AE
:104488004B460E4A082120460AF01AFAAB1DB2071D
:104498009BB208D132685A4505D132463946204682
:1044A800FFF78CFFEAE71A4631462046FFF714FF6C
:1044B800E4E700BFF44E0100544601006E420100DB
:1044C800E74E0100C40BD286F7B50D6806460F46C5
:1044D800EDB12846FCF7D4F984B2114B08210093BA
:1044E800104A2B4630460AF0EBF97968E31C9BB278
:1044F80079B18A070DD108680B4A904209D10A465A
:104508003046396803B0BDE8F040FFF757BF2C4686
:10451800E3E71A46304603B0BDE8F040FFF7DCBEDB
:10452800D84E0100464E0100C40BD28610B507498B
:104538000446FCF793F938B105492046FCF78EF993
:10454800B0FA80F0400910BD0120FCE7EA4E0100F6
:10455800ED4E010010B583680446D3F874329B060B
:1045680003D5064940690AF0ADFB5022A368002034
:104578005A871822A3681A8710BD00BF5E2B010056
:1045880008B5836902491A6809F031FD002008BDA1
:10459800A04F01002DE9F3410D49074609F027FD19
:1045A80000220C4C0C4DDFF83480AC4202F10106BD
:1045B80003D3002002B0BDE8F081636A92B2009391
:1045C8004146A368384609F012FD30343246ECE71C
:1045D800FB4E01003429010094290100134F01000A
:1045E80008B5024909F043FD002008BD5546010001
:1045F80073B5044600250D4EA2680DF1060302F5B9
:10460800AB720121E0680AF0EDFBBDF80600A36873
:1046180040B12A4603F5AB733146204609F0E7FC62
:104628000135E9E783F8560102B070BD5C4F01001F
:1046380010B5044609F05FFD03490246204609F01B
:10464800D6FC002010BD00BFD248010010B5836819
:104658000446D3F874329A0603D5074940690AF02C
:1046680031FBA368D3F874329B0603D5034960690C
:104678000AF028FB002010BD652B01006A2B010001
:10468800022907B50BD153680C49009312680C4BEB
:1046980009F0C9FC6FF0150003B05DF804FB8368EE
:1046A800084AD3F87432084913F0020F074B08BFC1
:1046B8001A4609F09CFC0020EEE700BF3D4F0100C0
:1046C800284F010035440100464F0100244F0100E6
:1046D800F0B5012985B004460BD053685B490093B7
:1046E80012685B4B09F09FFC6FF01505284605B072
:1046F800F0BD8368D3F874329A0603D555494069EA
:104708000AF0E0FA00256FF0F9012046FFF7D6FB22
:10471800FA212046FFF7E8FBA0684FF4807229468B
:1047280000F5AB708DF80B500CF058FF4A496069E2
:104738000AF0C8FA606909F0EDFC4FF47A7660680F
:10474800012203680DF10B011F6903ABB847039BF6
:1047580053B9013E4FF47A70B6B20CF0C7FB002E85
:10476800EDD16FF0850533E09DF80B20A3681B2A77
:104778005ED093F856111B29E1D1522A58D11D4415
:10478800002385F85631A06890F857215B2A37D165
:10479800022600F5AC7111F8012B01363B2AB6B29E
:1047A80031D1B6F5807FDCD0002206F5AB7101442B
:1047B80011F8015B002D30D1FA2A28BFFA22FA2B12
:1047C80028BFFA2380F85651A1684A87A268138740
:1047D800A368D3F874329B0603D5204960690AF0B0
:1047E80071FA002D82D05022A3681D495A871822D9
:1047F800A36820461A8709F008FC6FF0070575E7DB
:1048080080F85631ADE703EB830302EB4303303BFB
:10481800B6F5807F9BB2BED1A3E702EB82020136D8
:1048280005EB4205B6B2303DFF2EAAB2C0D998E7D3
:104838002B440135ADB2092D83F856217FF67FAFA1
:104848000022A36883F856218BE700BF3D4F010083
:10485800284F0100702B0100574F0100742B0100F5
:10486800664F01002DE9F04F824689B015468B4608
:1048780021B110460AF06BFB00285BD1032455E0F8
:104888004C463DE0294607F5AB700CF0FBFE804630
:10489800002853D0FBF7F4FF82B2601C0132414676
:1048A80040440CF081FE2246494640460CF06EFE1C
:1048B8004FF0200308F80430B7F8543001360133BC
:1048C8001C44A7F85440002401994B1C03AA5846DD
:1048D8000193FFF7ABFA8046F0B10022D8F8001038
:1048E80028460AF043FD0028EED1D8F80090DAF8FF
:1048F8000870B9F1000FC3D04846FBF7C1FF84B276
:10490800B7F854302344FF2BBCDD2B460C4A032157
:10491800504609F0D5FF012446B1DAF808002A46C6
:1049280000F1540100F5AB7009F058FD204609B0BC
:10493800BDE8F08F002602243146C6E70224EBE7E3
:104948006D5401002DE9F843064600AF0C460029D6
:1049580043D02C4D2B685A073FD0D1E90001E846D7
:104968008AB0A3686A464FF00509DFF8A8C0C2E913
:104978000713C2E905C042F8109F00234FF42151E4
:104988002846FDF715FB2B68C5465B0725D0D4E9FB
:1049980003018AB063696A46DFF87CC0C2E907137D
:1049A800C2E905C042F8109F002328464FF4215160
:1049B800FDF7FEFA2B68C54658070ED0E3690121BA
:1049C800114A284609F051F82B68590705D0A36900
:1049D8000E4A0121284609F048F8012E0AD1EFF3C2
:1049E800058308480268520704D0094A103B31463B
:1049F80009F03BF82146304606F03CF9BD46BDE8D3
:104A0800F88300BF940400201D5501002C550100B7
:104A18005A550100BF540100EE54010030BFFFF7A2
:104A2800FDBF00BF054B5A699B689A421FBF044AE5
:104A3800536843F080535360704700BFF82000204C
:104A480000ED00E038B5314C2368590703D03049F0
:104A580020460AF0CEFA2F4DAA6A920108D523689B
:104A68005B0703D02C4929480AF0C3FA1E2000E04E
:104A78001D20AB6ADD0107D52368590703D02749F4
:104A880022480AF0B6FA1F20224DAA6AD20207D598
:104A980023685B0703D022491C480AF0AAFA0220BF
:104AA800AB6A1D0307D52368590703D01D4917486A
:104AB8000AF09FFA2120174DAA6A520307D52368E6
:104AC8005B0703D0184911480AF093FA2220AB6A11
:104AD8009D0307D52368590703D014490B480AF0EA
:104AE80088FA23200B4DAB6ADA0307D523685B07E6
:104AF80003D00F4905480AF07CFA2420AB6A6FEA14
:104B080003436FEA1343AB6238BD00BF940400202F
:104B1800CD56010000ED00E0E5560100F856010011
:104B2800125701003C5701005A5701007F570100F6
:104B380099570100F8B5374C074623680E465A07BF
:104B480003D0354920460AF054FA344DAA6AD304F2
:104B580008D52368580703D031492E480AF049FA86
:104B6800172000E01620AB6A190507D523685A07F5
:104B780003D02C4927480AF03CFA1820274B9B6A97
:104B88009B050CD523685D0703D0274921480AF007
:104B980030FA224A936B926A10041FD419201F4DD1
:104BA800AB6A5A0507D523685B0703D01F49194824
:104BB8000AF01FFA1A20AB6ADF051FD523685907C8
:104BC80003D01B4913480AF014FA1B20134A936AAE
:104BD80043F47F43936200233370F8BD2268510782
:104BE80004D0144A01210B4808F03FFF002FD5D00C
:104BF8000A4A936A23F400439362CFE7AB6A9A04A4
:104C0800E4D523685B0703D00B4902480AF0F1F9A1
:104C18001C20DBE7940400206D55010000ED00E046
:104C28008355010094550100A7550100D555010091
:104C3800F0550100C055010008560100F8B5374C81
:104C4800074623680E465D0703D0354920460AF01B
:104C5800D0F9344DAA6AD00608D52368590703D07D
:104C680031492E480AF0C5F9112000E01020AB6A3E
:104C78001A0707D523685B0703D02C4927480AF091
:104C8800B8F91220274B9B6A9D070CD52368580753
:104C980003D0274921480AF0ACF9224A536B926A9B
:104CA80011062BD413201F4DAA6AD30707D52368F2
:104CB8005F0703D01F4919480AF09BF91420AB6A13
:104CC8009D0607D52368580703D01B4913480AF0E7
:104CD80090F91520134B9A6AD10658BF9A6A9A6AB6
:104CE800920642BF5A6A22F400525A620D4A936AE7
:104CF80043F0FF03936200233370F8BD2268520724
:104D080004D00E4A0121054808F0AFFE002FC9D093
:104D1800044A936A23F080039362C3E79404002053
:104D28003756010000ED00E04D5601009455010092
:104D380080560100AE560100085601009856010041
:104D48002DE9F0438BB07B4B00AFD3F804904FF0C4
:104D58000008C9F3080688F31188BFF36F8F02F0C3
:104D68007F43B3F17F4F0BD102F00C03082B0AD11C
:104D78007148036813F0070503D070490AF039F940
:104D880045462C4605E0140747BF0C4645460446F1
:104D980001250023FB71F31E092B00F2A680DFE832
:104DA80003F005979A94A4A4A4A4A49D624B1A683E
:104DB800984612F0070F03D0614918460AF019F90E
:104DC8004FF000095B4987F80790CE6A16F0020693
:104DD8000AD0D8F800305A0701D1002345E05949D4
:104DE80055480AF006F9F8E7CB6A002B05DAD8F837
:104DF80000305B07F1D05449F2E7CB6A5E00ECD58E
:104E0800D8F80030580703D050494B480AF0F1F859
:104E1800484BA1695A6942F480725A61BFF34F8FB7
:104E2800BFF36F8F5A6931F8021C22F480725A61FD
:104E3800BFF34F8FBFF36F8F4DF60272914209D0C7
:104E48009A6A12F0FF0F32D00120F91DFFF7F6FE23
:104E580003460AE0D8F80030590705D023683C4AD1
:104E68000121354808F001FE2368FA79DAB907F11B
:104E7800080604F1200C324620686168083403C231
:104E880064451646F7D17A6A002D4ED0C2F3080160
:104E980021B96FEA52226FEA42227A6207F10801C9
:104EA8001846FFF74FFD2C37BD46BDE8F0839A6AD8
:104EB80012F47F4F04D00120F91DFFF73BFEC7E72E
:104EC8009B6A1B0C1B04002B87D0FFF7BBFDBFE7B9
:104ED800F91D0020BAE7F91D0020EEE7164803681F
:104EE8005A073FF47AAF1B497BE7134803685B070F
:104EF8003FF473AF184A19F4F87FE8468AB0174BA5
:104F080018BF13466A461649103EC2E905134FF406
:104F180000731384134BD66142F8103F00234FF4FB
:104F28001151FDF745F8C54657E722F4FF7222F004
:104F38000102B2E700ED00E094040020F2570100FE
:104F48001D580100345801005558010063580100EC
:104F5800825801009E580100D9570100C45701002A
:104F6800C258010004000001064B5A6942F01002C1
:104F78005A615A6942F480625A615A6922F00802F9
:104F88005A61704700ED00E0EFF30880EFF3098104
:104F980001B57246FFF7D4FE01BD00BF0F4880F38C
:104FA800088803F0CBFE202080F311880C484FF0CE
:104FB800AA014FF400620BF0C8FF09484FF40061E2
:104FC800401880F30988EFF314800221084380F326
:104FD8001488BFF36F8F00F0B3F80000003D002085
:104FE800403E0020084B9B6883420BD1EFF30583BA
:104FF80043B1064B5A6842F080525A605A6A22F40A
:1050080000425A6206F0ECBFF820002000ED00E0F4
:1050180014498A684FF030001044EFF3098C80E897
:10502800F01F202080F31288BFF36F8F0E4F4FF0D0
:1050380000664A698A603E60D2F8AC000023C2F874
:10504800AC3080F3118802F1300090E8F01F8CF347
:10505800098802F1000004B509F0D3FFBDE8044057
:1050680070470000F820002004ED00E01EF0040F57
:105078000CBFEFF30880EFF30980816911F8021C77
:105088000229FFD001B5724609F0A8FF01BD00BF93
:1050980003B2002B08DB012200F01F0002FA00F027
:1050A800024A5B0942F82300704700BF00E100E0B4
:1050B80003B2002B0DDB012200F01F0002FA00F002
:1050C8005B09044A203342F82300BFF34F8FBFF334
:1050D8006F8F704700E100E0054B420953F822202A
:1050E800012300F01F0003FA00F01040704700BFD2
:1050F80000E100E003B2002B01F10101A8BF03F1B8
:1051080060434FEA4111B8BF054BC9B2ABBF03F5C5
:10511800614300F00F0083F800131954704700BF73
:1051280014ED00E0044B054A23F07F039360BFF3BE
:105138004F8FBFF36F8F70470000000000ED00E055
:1051480008B5FFF7EFFF0B4AD2F8883023F4700355
:10515800C2F88830EFF3148323F0040383F3148830
:10516800BFF36F8F05F086FE07F0CCF800F044F827
:1051780005F0C4FE00ED00E042F8203C009B0B491E
:1051880042F81C3C019B21F0010142F8183C029BAB
:1051980042F8081C42F8143C4FF0807342F8043C73
:1051A8000023203A0265C0F8AC30704733D10000C4
:1051B80070B50D4B0E4698601546D0F89C3083F3B9
:1051C8000B882C4686F309880020044B9847204614
:1051D800002100220023024C2047000015F00000A7
:1051E80033D1000070BD00BFF82000201022014B11
:1051F8001A61704700ED00E0002320210448C2181E
:105208000133B3F5917F82F80013F8D1704700BFDE
:1052180000E100E008B5EFF30583064A103B02EB16
:10522800C30152F8330049688847BDE80840FFF7D2
:10523800F9BB00BFB41D01001FB5094C094A23463C
:105248000121094800F014F900230393074B0121B9
:10525800E41A01A80193029400F014F904B010BDF7
:1052680000FC07200000002060310100000500203C
:1052780010B50C7A0B6823F01F0204F01F031A43C1
:10528800CB68640923F01F03044943EA440343F04D
:1052980001038860CA600B6110BD00BF90ED00E09B
:1052A80010B50B4B04461B68C3F30723013B984218
:1052B8000BD9084803685B0704D0074A2346012135
:1052C80008F0D3FB6FF0150001E0FFF7D1FF10BD28
:1052D80090ED00E0900400201F5901002DE9F04FE7
:1052E8008846144606460027544D85B0474529DAB6
:1052F800D6F80490B9F1000F4BD0B9F11F0F1BD9A4
:1053080019F01F0F18D1D6F800A01AF01F0F13D1EB
:10531800504609F09EFE834609EB0A00013809F061
:1053280098FE834518D06FF0150B454803685B0756
:1053380006D0444A5B460BE0414803685A0705D14A
:105348006FF01504204605B0BDE8F08F3B463E4A95
:10535800012108F08AFBF3E71BF1160FE5D05C4545
:10536800E3DDC5F808B0E968C5F808B02B6921F095
:105378001F0143F01F0AD6E900321A44994202F18C
:10538800FF391BD1CA4507D131465FFA8BF009F0C6
:1053980069FE01370C36A9E73146C5F808B0EB6855
:1053A80022F01F0203F01F031A43EA60E0B209F07B
:1053B80059FE10F1160FC3D0441CEAE7013BCA4559
:1053C800E0B223F01F03C5F808B006D12A693146B8
:1053D80002F01F0213432B61E9E7296901F01F015D
:1053E8000B432B61314609F03DFE10F1160FA7D093
:1053F800C5F808B0EA689DF808300AF1FF3A62F388
:1054080004038DF808302B699DF808205B0863F3C6
:1054180047128DF80820D6E900321344009323F090
:105428001F035344A3EB0903013023F01F0369460C
:10543800C0B20393FFF734FFBBE700BF90ED00E075
:1054480090040020FC580100D95801000522034BA4
:105458005A60BFF34F8FBFF36F8F704790ED00E036
:10546800BFF35F8F0022014B5A60704790ED00E058
:1054780010B5034C2278FFF731FF207010BD00BF34
:10548800742100202DE9F74F254C8A4680460027D5
:10549800A1464FF0140B234D57451ADAD8F80430BB
:1054A8000193002B36D0D8F800100846009109F077
:1054B800D0FDDDE9001306465818013809F0C9FD8A
:1054C8008642194A08D014235F436FF0150349F840
:1054D800073003B0BDE8F08F16F1160F2660F8D03C
:1054E8001378B342F5DD0BFB0793AE60AE60E86856
:1054F800197B60F3040119732969187B490861F362
:1055080047101873EB6823F01F0363602B6923F0BF
:105518001F0323610137143408F10C08BCE700BFEE
:10552800641E002090ED00E0742100202DE9F04376
:10553800424C434E22683768C2F30722974287B02D
:1055480078D80025FFF78CFF3E4B2363AF4217D175
:105558003D4D01A82F70FCF7C9FF002607464FF004
:105568004109DFF8E880B74212D100212B78226880
:10557800C2F30722934259DBFFF768FF00203FE0A0
:105588007168284601EB0511FFF772FE0135DDE76A
:10559800DDF804C031010CEB0103DA6802EA080205
:1055A800B2F5001F15D0B2F5800F2CD0B2F5801FD0
:1055B8003AD158685CF801209B68CDE902022122A3
:1055C800013B20F01F010B4423F01F038DF810202E
:1055D8000DE058685CF801209B6820F01F01013B32
:1055E800CDE902020B4423F01F038DF8109002A9A5
:1055F80028780593FFF754FE002812DA6FF015009B
:1056080007B0BDE8F08358689B685CF80120013B4F
:1056180020F01F010B44CDE9020223F01F030622EC
:10562800D4E72B7801332B7001369CE7A360216106
:1056380001339CE74FF0FF30E2E700BF90ED00E058
:105648006C310100AAFF4400742100200000F0FF23
:10565800F0B587B007460E4614460021102268466A
:105668001D460BF0BBFF02238DF80230054B2A467E
:10567800214668460193CDE9047607F097F907B00B
:10568800F0BD00BFA3F0000008B5024B1B689847A7
:10569800002008BD781E0020034B044A1860937848
:1056A80043F0020393707047781E00200C0100201D
:1056B80008B50549054A21F00701521A044807F0C0
:1056C80086FC002008BD00BF074F002000FC072013
:1056D8007C1E002008B500F0B9F801220023094912
:1056E800C0E9002241610849C0E902330A6007495C
:1056F80003610A60064A1360064A1360064A13608B
:1057080008BD00BF554601003401002038010020C3
:105718008C1E0020901E0020881E00202DE9F041DC
:1057280007460E46154600F091F8C36804461BB9B3
:1057380043691A78002A41D10023E3606368BB42B9
:1057480056F8232008DB334B6361204600F064F8E9
:105758004FF0FF30BDE8F081511C616192F8008084
:10576800B8F12D0FEFD1911C616151782D29A160FD
:1057780004D192786AB901336360E4E749B9254BEB
:105788004146636128460BF03FFF0028DDD0C4F88E
:105798000880D4F80880284641460BF035FFB8F158
:1057A8003A0F636900D070B91B7813B96368013385
:1057B8006360204600F030F83F20CBE75A1C426176
:1057C8001B788360E5E742783A2A0BD000222261F1
:1057D8001B7813B9636801336360204600F01CF836
:1057E800A068B7E719780B4A11B123616261F1E744
:1057F800636801339F42636002DD56F82330F4E7A3
:1058080062612D7820463A2DD4D100F005F828465B
:10581800A0E700BF554601000268074B1A604268BE
:10582800064B1A608268064B1A60C268054B1A60FC
:105838000269054B1A6070473401002038010020C6
:105848008C1E0020901E0020881E002000487047F3
:105858001C01002008B5244A244B1A6000F0DCF82B
:105868004FF47A60224AD2F82416C1F30803C1F330
:105878000941414383F480731E48883300FB0313B6
:105888004FF4FA205B00B3FBF0F100FB1133B3F5E2
:105898007A3F13464FF47A60174A28BF0131C2F89D
:1058A8000419D3F82016C1F30803C1F30941414391
:1058B80042F21C5083F4807303F2172300FB031396
:1058C8004FF47A701B0AB3FBF0F100FB1133B3F508
:1058D800FA7F28BF01311346C2F81C170122C3F80A
:1058E8000026002008BD00BF0020A1078C02002070
:1058F80000C0FF00F82A00800000125048B1054B94
:105908001A68054BB2FBF3F2044B504343F0010312
:10591800184770478C02002040420F00802B01007E
:10592800BFF34F8F0549064BCA6802F4E062134380
:10593800CB60BFF34F8F00BFFDE700BF00ED00E075
:105948000400FA05F0B5134E134F144D85B04FF00F
:10595800FF334FF0FF3201A9304605F099FB0346AB
:10596800A8B12A685207F2D00D4A0121284608F04A
:105978007CF8ECE7236813B1019A934203D1D4E988
:10598800013101A898470C34BC42F3D3DFE7054C3A
:10599800FAE700BFB4040020342901007C04002089
:1059A800915901003429010030B585B001909DF866
:1059B8002000DDE90A45039354EA05038DF8080041
:1059C8008DF80910ADF80A2006D006F003FB0E4B3F
:1059D800D3F8B830834201D1002400250B48224671
:1059E8002B4601A905F0F4FA041E0BDA08480368EF
:1059F80013F0060F03D0074A022108F02DF82046BD
:105A080005B030BD0024FAE7A8110020B404002036
:105A18007C0400205F5901000122024BC3F80424D2
:105A2800704700BF002008E0084B70B5C31A0D4648
:105A380007499B10044659434022064809F0A2FC36
:105A48002B4601462046BDE870401847A41E00209A
:105A5800B76DDBB6741B010010B5EFF3118420237A
:105A680083F31288BFF36F8F074A136823F002018C
:105A7800DB07116002D401200BF00AF884F31188C7
:105A8800BFF36F8F10BD00BF1C1F00202DE9F84326
:105A98000022012107464FF48770FFF72BFB1148BE
:105AA80003F022FA104B984219D103F02DFA002482
:105AB8004FF01C080C26DFF834903D69494608FB76
:105AC800045007F0FEFD002807DB012306FB045500
:105AD8001C44032CEB65F0D10020BDE8F8836FF07F
:105AE8000400FAE715F400000000AD0BC431010012
:105AF8000C23104A014603FB0023002030B4D3E9ED
:105B080015525865EFF31180202484F31288BFF3EF
:105B18006F8FDC6D04F0C00444F00204DC6580F390
:105B28001188BFF36F8F1DB12B4630BC0248184750
:105B380030BC7047A41E0020741B010010B4EFF3A2
:105B48001180202282F31288BFF36F8F16490B68E9
:105B580043F0020413F001030C6017D0134BD3F881
:105B68000C3413F4803311D0EFF3118182F31288CF
:105B7800BFF36F8F0E4AD36D03F0C00343F00203E7
:105B8800D36581F31188BFF36F8F012380F31188E8
:105B9800BFF36F8F1BB1002010BCFFF7A9BF012016
:105BA80010BC03F0C7B900BF1C1F002000E0105054
:105BB800A41E00207FB500220123CDE9022304ABF7
:105BC800CDE90433094A6B46CDF800D0CDF804D0AE
:105BD80009F02AFC002805DB43F609520023684631
:105BE80005F0C6FB07B05DF804FB00BF0FF400002A
:105BF8001A4BF0B4C21A0D469110194A4A43D2B250
:105C0800EFF31186202181F31288BFF36F8F0C24E4
:105C180004FB0234E16D01F00707012F11D1402187
:105C2800E165002186F31188BFF36F8F91B90C21CC
:105C38004A430C491344C3E915150B4BF0BC9B5858
:105C4800184701F0C001402914BF4FF0FF316FF031
:105C58007701E7E72B46F0BC184700BFA41E0020D9
:105C6800B76DDBB6E5F30000A03101002DE9F8437C
:105C7800012206463549D1E8EF3FC1E8E02F002868
:105C8800F9D133B9324933484B60CB608A6007F0A9
:105C98002BFD731E012B2BD8012E06D12E4BD3F8CA
:105CA800503403F00303012B22D00BF0EEF918B99E
:105CB8002A4B1B78002B42D1EFF31189202383F361
:105CC8001288BFF36F8F0124234D254FA846D5F8BE
:105CD8004C24D5F84C34D2030CD503F00303012B24
:105CE80001D0012E06D134B389F31188BFF36F8F29
:105CF800BDE8F883D4B1484609F09CF9D5F840349A
:105D080013F0FF03E3D13A68002AE0D03B603B6818
:105D18004FF480410123134AC5F84034C2F8A0115A
:105D280002F1E242A2F1F0121360D0E70021202034
:105D380006F0FCF8E2E70423C8F80433D8E70422A5
:105D4800054B0446C3F808238146BDE7201F002001
:105D5800941E0020C01E002000E01050FD210020ED
:105D680008E1105000E100E008B507480BF0C3F85F
:105D780038B10648FFF790FC0448FBF799FC00206F
:105D880008BD6FF01200FBE7281C0100995D0000B8
:105D98000A2838B50446074D04D1AB680D21DB69E4
:105DA80028469847AB68E1B2DB6902489847204625
:105DB80038BD00BF281C01004309022B70B503D071
:105DC800012B16D0BBB170BD0C4C23695968002952
:105DD800F9D0012600F01F000D6886408A6832401D
:105DE80002D04B6820469847002DECD029462D68F4
:105DF800F4E7034CE9E7034CE7E700BFBC1B0100ED
:105E0800981B0100E01B01002DE9F04340F2063821
:105E18004668D00648BF0325337B02EA080858BF06
:105E2800C2F3401587B001F01F07B8F5807F14460C
:105E380047EA43178DF803504AD00BD8B8F1020F40
:105E48001BD0B8F1060F46D0B8F1000F15D06FF08F
:105E580015003AE0B8F5007F40D005D8B8F5837F43
:105E6800F5D14FF0090808E040F20222904538D0F9
:105E7800B8F5407FEBD14FF005080123220303FA60
:105E880001F131D573685960306990BB07F01F0282
:105E98007F09032F7AD83F4B84F4803153F8273099
:105EA800C1F3004103EB8202D2F88030C4F34044CE
:105EB80023F4706344EA410423F00F031C4344EACB
:105EC800850444EA0824C2F8804007B0BDE8F0839E
:105ED8004FF00108D1E74FF00808CEE74FF004086B
:105EE800CBE74FF00608C8E7630344BF73689960BF
:105EF800CAE710360DF102023946304603F05EFC5F
:105F080014F4403F81460CD1394630460AF096FEDB
:105F1800214B994514D19DF80210304603F0C0FC7E
